{
  "contractName": "OffChain",
  "abi": [
    {
      "inputs": [],
      "stateMutability": "nonpayable",
      "type": "constructor"
    },
    {
      "anonymous": false,
      "inputs": [
        {
          "indexed": false,
          "internalType": "uint256",
          "name": "_id",
          "type": "uint256"
        }
      ],
      "name": "lendingRegistered",
      "type": "event"
    },
    {
      "inputs": [
        {
          "internalType": "uint256",
          "name": "",
          "type": "uint256"
        }
      ],
      "name": "idToLendingModel",
      "outputs": [
        {
          "internalType": "uint256",
          "name": "lid",
          "type": "uint256"
        },
        {
          "internalType": "address payable",
          "name": "sender",
          "type": "address"
        },
        {
          "internalType": "address payable",
          "name": "receiver",
          "type": "address"
        },
        {
          "internalType": "uint256",
          "name": "moneyLended",
          "type": "uint256"
        }
      ],
      "stateMutability": "view",
      "type": "function",
      "constant": true
    },
    {
      "inputs": [],
      "name": "owner",
      "outputs": [
        {
          "internalType": "address",
          "name": "",
          "type": "address"
        }
      ],
      "stateMutability": "view",
      "type": "function",
      "constant": true
    },
    {
      "inputs": [
        {
          "internalType": "address payable",
          "name": "_receipientAddress",
          "type": "address"
        }
      ],
      "name": "sendMoney",
      "outputs": [
        {
          "internalType": "uint256",
          "name": "",
          "type": "uint256"
        }
      ],
      "stateMutability": "payable",
      "type": "function",
      "payable": true
    },
    {
      "inputs": [
        {
          "internalType": "uint256",
          "name": "id",
          "type": "uint256"
        }
      ],
      "name": "payBack",
      "outputs": [],
      "stateMutability": "payable",
      "type": "function",
      "payable": true
    }
  ],
  "bytecode": "0x6080604052600060015534801561001557600080fd5b50336000806101000a81548173ffffffffffffffffffffffffffffffffffffffff021916908373ffffffffffffffffffffffffffffffffffffffff16021790555061069b806100656000396000f3fe60806040526004361061003f5760003560e01c806318cc4cc014610044578063338ccd78146100d45780637ccc5d351461012c5780638da5cb5b1461015a575b600080fd5b34801561005057600080fd5b5061007d6004803603602081101561006757600080fd5b810190808035906020019092919050505061019b565b604051808581526020018473ffffffffffffffffffffffffffffffffffffffff1681526020018373ffffffffffffffffffffffffffffffffffffffff16815260200182815260200194505050505060405180910390f35b610116600480360360208110156100ea57600080fd5b81019080803573ffffffffffffffffffffffffffffffffffffffff16906020019092919050505061020b565b6040518082815260200191505060405180910390f35b6101586004803603602081101561014257600080fd5b81019080803590602001909291905050506103f7565b005b34801561016657600080fd5b5061016f6105ed565b604051808273ffffffffffffffffffffffffffffffffffffffff16815260200191505060405180910390f35b60026020528060005260406000206000915090508060000154908060010160009054906101000a900473ffffffffffffffffffffffffffffffffffffffff16908060020160009054906101000a900473ffffffffffffffffffffffffffffffffffffffff16908060030154905084565b6000610215610611565b60015481600001818152505033816020019073ffffffffffffffffffffffffffffffffffffffff16908173ffffffffffffffffffffffffffffffffffffffff168152505082816040019073ffffffffffffffffffffffffffffffffffffffff16908173ffffffffffffffffffffffffffffffffffffffff168152505034816060018181525050806002600060015481526020019081526020016000206000820151816000015560208201518160010160006101000a81548173ffffffffffffffffffffffffffffffffffffffff021916908373ffffffffffffffffffffffffffffffffffffffff16021790555060408201518160020160006101000a81548173ffffffffffffffffffffffffffffffffffffffff021916908373ffffffffffffffffffffffffffffffffffffffff160217905550606082015181600301559050506001600081548092919060010191905055508273ffffffffffffffffffffffffffffffffffffffff166108fc349081150290604051600060405180830381858888f193505050501580156103ae573d6000803e3d6000fd5b507f1e6b0b3c3b7a51ed84de06e39844c916044feeb9f82aa82634077eb60f9f808660018054036040518082815260200191505060405180910390a16001805403915050919050565b6103ff610611565b60026000838152602001908152602001600020604051806080016040529081600082015481526020016001820160009054906101000a900473ffffffffffffffffffffffffffffffffffffffff1673ffffffffffffffffffffffffffffffffffffffff1673ffffffffffffffffffffffffffffffffffffffff1681526020016002820160009054906101000a900473ffffffffffffffffffffffffffffffffffffffff1673ffffffffffffffffffffffffffffffffffffffff1673ffffffffffffffffffffffffffffffffffffffff16815260200160038201548152505090503373ffffffffffffffffffffffffffffffffffffffff16816040015173ffffffffffffffffffffffffffffffffffffffff161480156105215750348160600151145b61052a57600080fd5b806020015173ffffffffffffffffffffffffffffffffffffffff166108fc349081150290604051600060405180830381858888f19350505050158015610574573d6000803e3d6000fd5b50600260008381526020019081526020016000206000808201600090556001820160006101000a81549073ffffffffffffffffffffffffffffffffffffffff02191690556002820160006101000a81549073ffffffffffffffffffffffffffffffffffffffff0219169055600382016000905550505050565b60008054906101000a900473ffffffffffffffffffffffffffffffffffffffff1681565b604051806080016040528060008152602001600073ffffffffffffffffffffffffffffffffffffffff168152602001600073ffffffffffffffffffffffffffffffffffffffff16815260200160008152509056fea26469706673582212204618ca693ad241658275ac0de9b6a4b840793fbf71b661133886038b7fad1e3d64736f6c634300060c0033",
  "source": "pragma solidity ^0.6.0;\n\ncontract OffChain {\n    address public owner;\n\n    constructor() public {\n        owner = msg.sender;\n    }\n\n    uint256 private lendingCount = 0;\n\n    // Instance of lendingmodel\n    struct LendingModel {\n        uint256 lid;\n        address payable sender;\n        address payable receiver;\n        uint256 moneyLended;\n    }\n\n    mapping(uint256 => LendingModel) public idToLendingModel;\n\n    event lendingRegistered(uint256 _id);\n\n    function sendMoney(address payable _receipientAddress)\n        public\n        payable\n        returns (uint256)\n    {\n        LendingModel memory _lendingModel;\n        _lendingModel.lid = lendingCount;\n        _lendingModel.sender = msg.sender;\n        _lendingModel.receiver = _receipientAddress;\n        _lendingModel.moneyLended = msg.value;\n\n        idToLendingModel[lendingCount] = _lendingModel;\n        lendingCount++;\n\n        _receipientAddress.transfer(msg.value);\n\n        emit lendingRegistered(lendingCount - 1);\n        return lendingCount - 1;\n    }\n\n    function payBack(uint256 id) public payable {\n        LendingModel memory _lendingModel = idToLendingModel[id];\n        require(\n            _lendingModel.receiver == msg.sender &&\n                _lendingModel.moneyLended == msg.value\n        );\n        _lendingModel.sender.transfer(msg.value);\n        delete idToLendingModel[id];\n    }\n}\n",
  "sourcePath": "/home/asish/Desktop/vitwit/contracts/OffChain.sol",
  "compiler": {
    "name": "solc",
    "version": "0.6.12+commit.27d51765.Emscripten.clang"
  },
  "schemaVersion": "3.0.23",
  "updatedAt": "2020-07-23T14:44:58.408Z",
  "networkType": "ethereum",
  "devdoc": {
    "kind": "dev",
    "methods": {},
    "version": 1
  },
  "userdoc": {
    "kind": "user",
    "methods": {},
    "version": 1
  }
}